:020000040000FA
:040000000DEF00F010
:04000800A6EF1CF053
:06001800FF00B7EF1CF031
:1038000000000000000000000000000000000000B8
:1038100000000000000000000000000000000000A8
:103820000000000000000000000000000000000098
:0B38300000000000000000000000008D
:10383C00000EC26E000EC16E000EBE6E000EBF6E8C
:10384C00000EC06E070ECA6EC668C768E40EC86E5E
:10385C00C96804011869E40E106FFE0E086F070E9C
:10386C00206F0069000E196F000E216F000E096F9A
:10387C00000E016F000E116F000E226F000E026F12
:10388C00000E0A6F180E126F000E1A6F03690B6987
:10389C0013691B69070E236F04690C6914691C6991
:1038AC000F0E246F140E0201706F370E146F080E7A
:1038BC003E6F380E156F130E716F12002B502C10BB
:1038CC002D10D8B46CEF1CF06EEF1CF07BEF1CF0DD
:1038DC0002D87BEF1CF00500FA6E2B50FD6E2C50BD
:1038EC00FE6E2D50FF6EFA5012001200040E0201F3
:1038FC00946F800E956F180E966F030E9E6F000ED0
:10390C009A6F000E9B6F000E976F000E8C6F000E5F
:10391C008D6F000E9D6F1200000E0001606F000E87
:10392C00616F000E626F000E636F000E646F000E0D
:10393C00656F000E666F000E676F000E686F1200E9
:10394C009FA0ABEF1CF0ADEF1CF0B6EF1CF0AFA0DE
:10395C00B2EF1CF0B4EF1CF0B6EF1CF0F9EC1CF05D
:10396C00110001EE01F12A0EEE6AE806FDE10401F8
:10397C00080E5D6F000E5E6F000E5F6F0001F3EFBF
:10398C001CF0FDEC1CF092EC1CF07CEC1CF01EEC22
:10399C001CF0D4EC1CF0E0EC1CF01200600E0001EA
:1039AC00AD6F000EAF6F010EB36F080EB16F000E4E
:1039BC00B06F1200AF90D690FE0E2E6E390E2F6E99
:1039CC00000E306EECEC1CF09F8012002EC52BF517
:1039DC002FC52CF530C52DF51200C7EC1CF0F5EFFA
:1039EC001CF00DEF00F0AF9064EC1CF01200D69AB6
:0439FC0012001200A3
:020000040020DA
:10000000FF0FFF0FFF0FFF0FFF0FFF0FFF0FFF0F80
:10001000FF0FFF0FFF0FFF0FFF0FFF0FFF0FFF0F70
:020000040030CA
:100000008CFFF7FF9FFFFFFFFFFFFFFFFFFFFFFFDB
:10001000FFFFFFFFFFFFFFFFFFFFFFFFFFFFFFFFF0
:04002000FFFFFFFFE0
:00000001FF
